{
  "contractName": "Mayor",
  "abi": [
    {
      "inputs": [
        {
          "internalType": "address[]",
          "name": "_candidates",
          "type": "address[]"
        },
        {
          "internalType": "address payable",
          "name": "_escrow",
          "type": "address"
        },
        {
          "internalType": "uint32",
          "name": "_quorum",
          "type": "uint32"
        },
        {
          "internalType": "address",
          "name": "_SULtoken",
          "type": "address"
        }
      ],
      "stateMutability": "nonpayable",
      "type": "constructor"
    },
    {
      "anonymous": false,
      "inputs": [
        {
          "indexed": false,
          "internalType": "address",
          "name": "_voter",
          "type": "address"
        }
      ],
      "name": "EnvelopeCast",
      "type": "event"
    },
    {
      "anonymous": false,
      "inputs": [
        {
          "indexed": false,
          "internalType": "address",
          "name": "_voter",
          "type": "address"
        },
        {
          "indexed": false,
          "internalType": "uint256",
          "name": "_soul",
          "type": "uint256"
        },
        {
          "indexed": false,
          "internalType": "address",
          "name": "_candidate",
          "type": "address"
        }
      ],
      "name": "EnvelopeOpen",
      "type": "event"
    },
    {
      "anonymous": false,
      "inputs": [
        {
          "indexed": false,
          "internalType": "address",
          "name": "_candidate",
          "type": "address"
        }
      ],
      "name": "NewMayor",
      "type": "event"
    },
    {
      "anonymous": false,
      "inputs": [
        {
          "indexed": false,
          "internalType": "address",
          "name": "_voter",
          "type": "address"
        }
      ],
      "name": "Registered",
      "type": "event"
    },
    {
      "anonymous": false,
      "inputs": [
        {
          "indexed": false,
          "internalType": "address",
          "name": "_escrow",
          "type": "address"
        }
      ],
      "name": "Tie",
      "type": "event"
    },
    {
      "inputs": [
        {
          "internalType": "uint256",
          "name": "",
          "type": "uint256"
        }
      ],
      "name": "candidates",
      "outputs": [
        {
          "internalType": "address",
          "name": "",
          "type": "address"
        }
      ],
      "stateMutability": "view",
      "type": "function",
      "constant": true
    },
    {
      "inputs": [
        {
          "internalType": "address",
          "name": "",
          "type": "address"
        }
      ],
      "name": "candidates_state",
      "outputs": [
        {
          "internalType": "uint256",
          "name": "soul",
          "type": "uint256"
        },
        {
          "internalType": "uint256",
          "name": "votes",
          "type": "uint256"
        }
      ],
      "stateMutability": "view",
      "type": "function",
      "constant": true
    },
    {
      "inputs": [],
      "name": "escrow",
      "outputs": [
        {
          "internalType": "address payable",
          "name": "",
          "type": "address"
        }
      ],
      "stateMutability": "view",
      "type": "function",
      "constant": true
    },
    {
      "inputs": [],
      "name": "voting_condition",
      "outputs": [
        {
          "internalType": "uint32",
          "name": "quorum",
          "type": "uint32"
        },
        {
          "internalType": "uint32",
          "name": "envelopes_casted",
          "type": "uint32"
        },
        {
          "internalType": "uint32",
          "name": "envelopes_opened",
          "type": "uint32"
        },
        {
          "internalType": "bool",
          "name": "outcome_announced",
          "type": "bool"
        },
        {
          "internalType": "address",
          "name": "winner",
          "type": "address"
        }
      ],
      "stateMutability": "view",
      "type": "function",
      "constant": true
    },
    {
      "inputs": [],
      "name": "register",
      "outputs": [],
      "stateMutability": "nonpayable",
      "type": "function"
    },
    {
      "inputs": [
        {
          "internalType": "bytes32",
          "name": "_envelope",
          "type": "bytes32"
        }
      ],
      "name": "cast_envelope",
      "outputs": [],
      "stateMutability": "nonpayable",
      "type": "function"
    },
    {
      "inputs": [
        {
          "internalType": "uint256",
          "name": "_sigil",
          "type": "uint256"
        },
        {
          "internalType": "address",
          "name": "_candidate",
          "type": "address"
        }
      ],
      "name": "open_envelope",
      "outputs": [],
      "stateMutability": "payable",
      "type": "function",
      "payable": true
    },
    {
      "inputs": [],
      "name": "mayor_or_sayonara",
      "outputs": [],
      "stateMutability": "nonpayable",
      "type": "function"
    },
    {
      "inputs": [
        {
          "internalType": "uint256",
          "name": "_sigil",
          "type": "uint256"
        },
        {
          "internalType": "address",
          "name": "_candidate",
          "type": "address"
        },
        {
          "internalType": "uint256",
          "name": "_soul",
          "type": "uint256"
        }
      ],
      "name": "compute_envelope",
      "outputs": [
        {
          "internalType": "bytes32",
          "name": "",
          "type": "bytes32"
        }
      ],
      "stateMutability": "pure",
      "type": "function",
      "constant": true
    },
    {
      "inputs": [],
      "name": "candidates_number",
      "outputs": [
        {
          "internalType": "uint256",
          "name": "",
          "type": "uint256"
        }
      ],
      "stateMutability": "view",
      "type": "function",
      "constant": true
    }
  ],
  "bytecode": "0x60806040523480156200001157600080fd5b5060405162002cd538038062002cd583398181016040528101906200003791906200049d565b60008451116200007e576040517f08c379a0000000000000000000000000000000000000000000000000000000008152600401620000759062000549565b60405180910390fd5b80600360006101000a81548173ffffffffffffffffffffffffffffffffffffffff021916908373ffffffffffffffffffffffffffffffffffffffff16021790555060005b8451811015620002345760405180604001604052806000815260200160008152506005600087848151811062000121577f4e487b7100000000000000000000000000000000000000000000000000000000600052603260045260246000fd5b602002602001015173ffffffffffffffffffffffffffffffffffffffff1673ffffffffffffffffffffffffffffffffffffffff16815260200190815260200160002060008201518160000155602082015181600101559050506000858281518110620001b6577f4e487b7100000000000000000000000000000000000000000000000000000000600052603260045260246000fd5b60200260200101519080600181540180825580915050600190039060005260206000200160009091909190916101000a81548173ffffffffffffffffffffffffffffffffffffffff021916908373ffffffffffffffffffffffffffffffffffffffff16021790555080806200022b906200066c565b915050620000c2565b5082600160006101000a81548173ffffffffffffffffffffffffffffffffffffffff021916908373ffffffffffffffffffffffffffffffffffffffff1602179055506040518060a001604052808363ffffffff168152602001600063ffffffff168152602001600063ffffffff168152602001600015158152602001600073ffffffffffffffffffffffffffffffffffffffff16815250600660008201518160000160006101000a81548163ffffffff021916908363ffffffff16021790555060208201518160000160046101000a81548163ffffffff021916908363ffffffff16021790555060408201518160000160086101000a81548163ffffffff021916908363ffffffff160217905550606082015181600001600c6101000a81548160ff02191690831515021790555060808201518160010160006101000a81548173ffffffffffffffffffffffffffffffffffffffff021916908373ffffffffffffffffffffffffffffffffffffffff16021790555090505050505050620007c6565b6000620003cd620003c78462000594565b6200056b565b90508083825260208201905082856020860282011115620003ed57600080fd5b60005b858110156200042157816200040688826200042b565b845260208401935060208301925050600181019050620003f0565b5050509392505050565b6000815190506200043c8162000778565b92915050565b600081519050620004538162000792565b92915050565b600082601f8301126200046b57600080fd5b81516200047d848260208601620003b6565b91505092915050565b6000815190506200049781620007ac565b92915050565b60008060008060808587031215620004b457600080fd5b600085015167ffffffffffffffff811115620004cf57600080fd5b620004dd8782880162000459565b9450506020620004f08782880162000442565b9350506040620005038782880162000486565b925050606062000516878288016200042b565b91505092959194509250565b600062000531602383620005c3565b91506200053e8262000729565b604082019050919050565b60006020820190508181036000830152620005648162000522565b9050919050565b6000620005776200058a565b905062000585828262000636565b919050565b6000604051905090565b600067ffffffffffffffff821115620005b257620005b1620006e9565b5b602082029050602081019050919050565b600082825260208201905092915050565b6000620005e182620005fc565b9050919050565b6000620005f582620005fc565b9050919050565b600073ffffffffffffffffffffffffffffffffffffffff82169050919050565b6000819050919050565b600063ffffffff82169050919050565b620006418262000718565b810181811067ffffffffffffffff82111715620006635762000662620006e9565b5b80604052505050565b600062000679826200061c565b91507fffffffffffffffffffffffffffffffffffffffffffffffffffffffffffffffff821415620006af57620006ae620006ba565b5b600182019050919050565b7f4e487b7100000000000000000000000000000000000000000000000000000000600052601160045260246000fd5b7f4e487b7100000000000000000000000000000000000000000000000000000000600052604160045260246000fd5b6000601f19601f8301169050919050565b7f5468652063616e64696461746573206d757374206265206174206c656173742060008201527f6f6e650000000000000000000000000000000000000000000000000000000000602082015250565b6200078381620005d4565b81146200078f57600080fd5b50565b6200079d81620005e8565b8114620007a957600080fd5b50565b620007b78162000626565b8114620007c357600080fd5b50565b6124ff80620007d66000396000f3fe6080604052600436106100915760003560e01c8063b7e1e8b211610059578063b7e1e8b214610146578063c586ff6714610184578063e2fdcc17146101c1578063ed259f0a146101ec578063ee7402ac1461021b57610091565b806305698612146100965780631aa3a008146100ad5780631c9a34e3146100c45780633477ee2e146100ed5780635a26164b1461012a575b600080fd5b3480156100a257600080fd5b506100ab610246565b005b3480156100b957600080fd5b506100c26108ea565b005b3480156100d057600080fd5b506100eb60048036038101906100e691906118df565b610ba6565b005b3480156100f957600080fd5b50610114600480360381019061010f9190611908565b610db7565b6040516101219190611bcf565b60405180910390f35b610144600480360381019061013f919061195a565b610df6565b005b34801561015257600080fd5b5061016d6004803603810190610168919061188d565b61140e565b60405161017b929190611ed6565b60405180910390f35b34801561019057600080fd5b506101ab60048036038101906101a69190611996565b611432565b6040516101b89190611d09565b60405180910390f35b3480156101cd57600080fd5b506101d6611468565b6040516101e39190611c05565b60405180910390f35b3480156101f857600080fd5b5061020161148e565b604051610212959493929190611eff565b60405180910390f35b34801561022757600080fd5b5061023061150f565b60405161023d9190611e84565b60405180910390f35b600660000160009054906101000a900463ffffffff1663ffffffff16600660000160089054906101000a900463ffffffff1663ffffffff16146102be576040517f08c379a00000000000000000000000000000000000000000000000000000000081526004016102b590611e44565b60405180910390fd5b600015156006600001600c9054906101000a900460ff16151514610317576040517f08c379a000000000000000000000000000000000000000000000000000000000815260040161030e90611e04565b60405180910390fd5b60016006600001600c6101000a81548160ff02191690831515021790555060008061034061151b565b9150915060008114156106db57600360009054906101000a900473ffffffffffffffffffffffffffffffffffffffff1673ffffffffffffffffffffffffffffffffffffffff1663a9059cbb83600560008673ffffffffffffffffffffffffffffffffffffffff1673ffffffffffffffffffffffffffffffffffffffff168152602001908152602001600020600001546040518363ffffffff1660e01b81526004016103ec929190611c20565b602060405180830381600087803b15801561040657600080fd5b505af115801561041a573d6000803e3d6000fd5b505050506040513d601f19601f8201168201806040525081019061043e91906118b6565b5081600660010160006101000a81548173ffffffffffffffffffffffffffffffffffffffff021916908373ffffffffffffffffffffffffffffffffffffffff1602179055507f871e83b983a039f59e0f4c08b833ff72e17dcba70607314804f13146995a8f76826040516104b29190611bea565b60405180910390a160005b6009805490508110156106d557600060098281548110610506577f4e487b7100000000000000000000000000000000000000000000000000000000600052603260045260246000fd5b9060005260206000200160009054906101000a900473ffffffffffffffffffffffffffffffffffffffff1690508373ffffffffffffffffffffffffffffffffffffffff16600860008373ffffffffffffffffffffffffffffffffffffffff1673ffffffffffffffffffffffffffffffffffffffff16815260200190815260200160002060010160009054906101000a900473ffffffffffffffffffffffffffffffffffffffff1673ffffffffffffffffffffffffffffffffffffffff16146106c1576000819050600360009054906101000a900473ffffffffffffffffffffffffffffffffffffffff1673ffffffffffffffffffffffffffffffffffffffff1663a9059cbb82600860008673ffffffffffffffffffffffffffffffffffffffff1673ffffffffffffffffffffffffffffffffffffffff168152602001908152602001600020600001546040518363ffffffff1660e01b815260040161066c929190611c20565b602060405180830381600087803b15801561068657600080fd5b505af115801561069a573d6000803e3d6000fd5b505050506040513d601f19601f820116820180604052508101906106be91906118b6565b50505b5080806106cd90612063565b9150506104bd565b506108e6565b6000805b6000805490508110156107b8576000808281548110610727577f4e487b7100000000000000000000000000000000000000000000000000000000600052603260045260246000fd5b9060005260206000200160009054906101000a900473ffffffffffffffffffffffffffffffffffffffff169050600560008273ffffffffffffffffffffffffffffffffffffffff1673ffffffffffffffffffffffffffffffffffffffff16815260200190815260200160002060000154836107a29190611f63565b92505080806107b090612063565b9150506106df565b50600360009054906101000a900473ffffffffffffffffffffffffffffffffffffffff1673ffffffffffffffffffffffffffffffffffffffff1663a9059cbb600160009054906101000a900473ffffffffffffffffffffffffffffffffffffffff16836040518363ffffffff1660e01b8152600401610838929190611c20565b602060405180830381600087803b15801561085257600080fd5b505af1158015610866573d6000803e3d6000fd5b505050506040513d601f19601f8201168201806040525081019061088a91906118b6565b507f81e3b0b716ec9d7feb7ee03eefadf76d77d812479254edd8a32187c21683243e600160009054906101000a900473ffffffffffffffffffffffffffffffffffffffff166040516108dc9190611bea565b60405180910390a1505b5050565b600260003373ffffffffffffffffffffffffffffffffffffffff1673ffffffffffffffffffffffffffffffffffffffff16815260200190815260200160002060009054906101000a900460ff1615610977576040517f08c379a000000000000000000000000000000000000000000000000000000000815260040161096e90611d84565b60405180910390fd5b600360009054906101000a900473ffffffffffffffffffffffffffffffffffffffff1673ffffffffffffffffffffffffffffffffffffffff166370a08231306040518263ffffffff1660e01b81526004016109d29190611bcf565b60206040518083038186803b1580156109ea57600080fd5b505afa1580156109fe573d6000803e3d6000fd5b505050506040513d601f19601f82011682018060405250810190610a229190611931565b606410610a64576040517f08c379a0000000000000000000000000000000000000000000000000000000008152600401610a5b90611da4565b60405180910390fd5b600360009054906101000a900473ffffffffffffffffffffffffffffffffffffffff1673ffffffffffffffffffffffffffffffffffffffff1663a9059cbb3360646040518363ffffffff1660e01b8152600401610ac2929190611ca9565b602060405180830381600087803b158015610adc57600080fd5b505af1158015610af0573d6000803e3d6000fd5b505050506040513d601f19601f82011682018060405250810190610b1491906118b6565b506001600260003373ffffffffffffffffffffffffffffffffffffffff1673ffffffffffffffffffffffffffffffffffffffff16815260200190815260200160002060006101000a81548160ff0219169083151502179055507f2d3734a8e47ac8316e500ac231c90a6e1848ca2285f40d07eaa52005e4b3a0e933604051610b9c9190611bcf565b60405180910390a1565b600660000160009054906101000a900463ffffffff1663ffffffff16600660000160049054906101000a900463ffffffff1663ffffffff1610610c1e576040517f08c379a0000000000000000000000000000000000000000000000000000000008152600401610c1590611d24565b60405180910390fd5b600260003373ffffffffffffffffffffffffffffffffffffffff1673ffffffffffffffffffffffffffffffffffffffff16815260200190815260200160002060009054906101000a900460ff16610caa576040517f08c379a0000000000000000000000000000000000000000000000000000000008152600401610ca190611dc4565b60405180910390fd5b6000801b600460003373ffffffffffffffffffffffffffffffffffffffff1673ffffffffffffffffffffffffffffffffffffffff168152602001908152602001600020541415610d39576006600001600481819054906101000a900463ffffffff1680929190610d19906120ac565b91906101000a81548163ffffffff021916908363ffffffff160217905550505b80600460003373ffffffffffffffffffffffffffffffffffffffff1673ffffffffffffffffffffffffffffffffffffffff168152602001908152602001600020819055507f8033de21ae72f21fa8773c90e60e7a5188cb8e44b97f487a5c362a491882ae3433604051610dac9190611bcf565b60405180910390a150565b60008181548110610dc757600080fd5b906000526020600020016000915054906101000a900473ffffffffffffffffffffffffffffffffffffffff1681565b600660000160009054906101000a900463ffffffff1663ffffffff16600660000160049054906101000a900463ffffffff1663ffffffff1614610e6e576040517f08c379a0000000000000000000000000000000000000000000000000000000008152600401610e6590611de4565b60405180910390fd5b6000801b600460003373ffffffffffffffffffffffffffffffffffffffff1673ffffffffffffffffffffffffffffffffffffffff168152602001908152602001600020541415610ef3576040517f08c379a0000000000000000000000000000000000000000000000000000000008152600401610eea90611e24565b60405180910390fd5b6000600860003373ffffffffffffffffffffffffffffffffffffffff1673ffffffffffffffffffffffffffffffffffffffff1681526020019081526020016000206000015414610f78576040517f08c379a0000000000000000000000000000000000000000000000000000000008152600401610f6f90611e64565b60405180910390fd5b6000600460003373ffffffffffffffffffffffffffffffffffffffff1673ffffffffffffffffffffffffffffffffffffffff1681526020019081526020016000205490506000610fc9848434611432565b905080821461100d576040517f08c379a000000000000000000000000000000000000000000000000000000000815260040161100490611d64565b60405180910390fd5b34600360009054906101000a900473ffffffffffffffffffffffffffffffffffffffff1673ffffffffffffffffffffffffffffffffffffffff1663dd62ed3e33306040518363ffffffff1660e01b815260040161106b929190611c49565b60206040518083038186803b15801561108357600080fd5b505afa158015611097573d6000803e3d6000fd5b505050506040513d601f19601f820116820180604052508101906110bb9190611931565b146110fb576040517f08c379a00000000000000000000000000000000000000000000000000000000081526004016110f290611d44565b60405180910390fd5b600360009054906101000a900473ffffffffffffffffffffffffffffffffffffffff1673ffffffffffffffffffffffffffffffffffffffff166323b872dd3330346040518463ffffffff1660e01b815260040161115a93929190611c72565b602060405180830381600087803b15801561117457600080fd5b505af1158015611188573d6000803e3d6000fd5b505050506040513d601f19601f820116820180604052508101906111ac91906118b6565b6111b557600080fd5b60405180604001604052803481526020018473ffffffffffffffffffffffffffffffffffffffff16815250600860003373ffffffffffffffffffffffffffffffffffffffff1673ffffffffffffffffffffffffffffffffffffffff1681526020019081526020016000206000820151816000015560208201518160010160006101000a81548173ffffffffffffffffffffffffffffffffffffffff021916908373ffffffffffffffffffffffffffffffffffffffff1602179055509050506009339080600181540180825580915050600190039060005260206000200160009091909190916101000a81548173ffffffffffffffffffffffffffffffffffffffff021916908373ffffffffffffffffffffffffffffffffffffffff1602179055506001600560008573ffffffffffffffffffffffffffffffffffffffff1673ffffffffffffffffffffffffffffffffffffffff16815260200190815260200160002060010160008282546113299190611f63565b9250508190555034600560008573ffffffffffffffffffffffffffffffffffffffff1673ffffffffffffffffffffffffffffffffffffffff16815260200190815260200160002060000160008282546113829190611f63565b925050819055506006600001600881819054906101000a900463ffffffff16809291906113ae906120ac565b91906101000a81548163ffffffff021916908363ffffffff160217905550507f389bc8f710c058e5d0507e8bd7a82953376bea3c5d11fddd2b31144904c5fc0933348560405161140093929190611cd2565b60405180910390a150505050565b60056020528060005260406000206000915090508060000154908060010154905082565b600083838360405160200161144993929190611e9f565b6040516020818303038152906040528051906020012090509392505050565b600160009054906101000a900473ffffffffffffffffffffffffffffffffffffffff1681565b60068060000160009054906101000a900463ffffffff16908060000160049054906101000a900463ffffffff16908060000160089054906101000a900463ffffffff169080600001600c9054906101000a900460ff16908060010160009054906101000a900473ffffffffffffffffffffffffffffffffffffffff16905085565b60008080549050905090565b6000806000806000905060008060005b600080549050811015611815576000808281548110611573577f4e487b7100000000000000000000000000000000000000000000000000000000600052603260045260246000fd5b9060005260206000200160009054906101000a900473ffffffffffffffffffffffffffffffffffffffff16905084600560008373ffffffffffffffffffffffffffffffffffffffff1673ffffffffffffffffffffffffffffffffffffffff16815260200190815260200160002060000154111561168057600560008273ffffffffffffffffffffffffffffffffffffffff1673ffffffffffffffffffffffffffffffffffffffff168152602001908152602001600020600001549450600560008273ffffffffffffffffffffffffffffffffffffffff1673ffffffffffffffffffffffffffffffffffffffff16815260200190815260200160002060010154935080955060009250611801565b84600560008373ffffffffffffffffffffffffffffffffffffffff1673ffffffffffffffffffffffffffffffffffffffff16815260200190815260200160002060000154141561180057600560008273ffffffffffffffffffffffffffffffffffffffff1673ffffffffffffffffffffffffffffffffffffffff16815260200190815260200160002060010154935083600560008373ffffffffffffffffffffffffffffffffffffffff1673ffffffffffffffffffffffffffffffffffffffff1681526020019081526020016000206001015411156117ef57600560008273ffffffffffffffffffffffffffffffffffffffff1673ffffffffffffffffffffffffffffffffffffffff168152602001908152602001600020600001549450600560008273ffffffffffffffffffffffffffffffffffffffff1673ffffffffffffffffffffffffffffffffffffffff168152602001908152602001600020600101549350809550600092506117ff565b6001836117fc9190611f63565b92505b5b5b50808061180d90612063565b91505061152b565b50838195509550505050509091565b6000813590506118338161246d565b92915050565b60008151905061184881612484565b92915050565b60008135905061185d8161249b565b92915050565b600081359050611872816124b2565b92915050565b600081519050611887816124b2565b92915050565b60006020828403121561189f57600080fd5b60006118ad84828501611824565b91505092915050565b6000602082840312156118c857600080fd5b60006118d684828501611839565b91505092915050565b6000602082840312156118f157600080fd5b60006118ff8482850161184e565b91505092915050565b60006020828403121561191a57600080fd5b600061192884828501611863565b91505092915050565b60006020828403121561194357600080fd5b600061195184828501611878565b91505092915050565b6000806040838503121561196d57600080fd5b600061197b85828601611863565b925050602061198c85828601611824565b9150509250929050565b6000806000606084860312156119ab57600080fd5b60006119b986828701611863565b93505060206119ca86828701611824565b92505060406119db86828701611863565b9150509250925092565b6119ee8161202d565b82525050565b6119fd81611fcb565b82525050565b611a0c81611fb9565b82525050565b611a1b81611fdd565b82525050565b611a2a81611fe9565b82525050565b6000611a3d602f83611f52565b9150611a4882612108565b604082019050919050565b6000611a60602a83611f52565b9150611a6b82612157565b604082019050919050565b6000611a83603383611f52565b9150611a8e826121a6565b604082019050919050565b6000611aa6602383611f52565b9150611ab1826121f5565b604082019050919050565b6000611ac9602983611f52565b9150611ad482612244565b604082019050919050565b6000611aec602f83611f52565b9150611af782612293565b604082019050919050565b6000611b0f603683611f52565b9150611b1a826122e2565b604082019050919050565b6000611b32603083611f52565b9150611b3d82612331565b604082019050919050565b6000611b55602383611f52565b9150611b6082612380565b604082019050919050565b6000611b78603c83611f52565b9150611b83826123cf565b604082019050919050565b6000611b9b602a83611f52565b9150611ba68261241e565b604082019050919050565b611bba81612013565b82525050565b611bc98161201d565b82525050565b6000602082019050611be46000830184611a03565b92915050565b6000602082019050611bff60008301846119e5565b92915050565b6000602082019050611c1a60008301846119f4565b92915050565b6000604082019050611c3560008301856119e5565b611c426020830184611bb1565b9392505050565b6000604082019050611c5e6000830185611a03565b611c6b6020830184611a03565b9392505050565b6000606082019050611c876000830186611a03565b611c946020830185611a03565b611ca16040830184611bb1565b949350505050565b6000604082019050611cbe6000830185611a03565b611ccb6020830184611bb1565b9392505050565b6000606082019050611ce76000830186611a03565b611cf46020830185611bb1565b611d016040830184611a03565b949350505050565b6000602082019050611d1e6000830184611a21565b92915050565b60006020820190508181036000830152611d3d81611a30565b9050919050565b60006020820190508181036000830152611d5d81611a53565b9050919050565b60006020820190508181036000830152611d7d81611a76565b9050919050565b60006020820190508181036000830152611d9d81611a99565b9050919050565b60006020820190508181036000830152611dbd81611abc565b9050919050565b60006020820190508181036000830152611ddd81611adf565b9050919050565b60006020820190508181036000830152611dfd81611b02565b9050919050565b60006020820190508181036000830152611e1d81611b25565b9050919050565b60006020820190508181036000830152611e3d81611b48565b9050919050565b60006020820190508181036000830152611e5d81611b6b565b9050919050565b60006020820190508181036000830152611e7d81611b8e565b9050919050565b6000602082019050611e996000830184611bb1565b92915050565b6000606082019050611eb46000830186611bb1565b611ec16020830185611a03565b611ece6040830184611bb1565b949350505050565b6000604082019050611eeb6000830185611bb1565b611ef86020830184611bb1565b9392505050565b600060a082019050611f146000830188611bc0565b611f216020830187611bc0565b611f2e6040830186611bc0565b611f3b6060830185611a12565b611f486080830184611a03565b9695505050505050565b600082825260208201905092915050565b6000611f6e82612013565b9150611f7983612013565b9250827fffffffffffffffffffffffffffffffffffffffffffffffffffffffffffffffff03821115611fae57611fad6120d9565b5b828201905092915050565b6000611fc482611ff3565b9050919050565b6000611fd682611ff3565b9050919050565b60008115159050919050565b6000819050919050565b600073ffffffffffffffffffffffffffffffffffffffff82169050919050565b6000819050919050565b600063ffffffff82169050919050565b60006120388261203f565b9050919050565b600061204a82612051565b9050919050565b600061205c82611ff3565b9050919050565b600061206e82612013565b91507fffffffffffffffffffffffffffffffffffffffffffffffffffffffffffffffff8214156120a1576120a06120d9565b5b600182019050919050565b60006120b78261201d565b915063ffffffff8214156120ce576120cd6120d9565b5b600182019050919050565b7f4e487b7100000000000000000000000000000000000000000000000000000000600052601160045260246000fd5b7f43616e6e6f7420766f7465206e6f772c20766f74696e672071756f72756d206860008201527f6173206265656e20726561636865640000000000000000000000000000000000602082015250565b7f5468652076616c7565206d757374206265207468652073616d65206f6620746860008201527f6520656e76656c6f706500000000000000000000000000000000000000000000602082015250565b7f53656e7420656e76656c6f706520646f6573206e6f7420636f72726573706f6e60008201527f6420746f20746865206f6e652063617374656400000000000000000000000000602082015250565b7f54686520766f74657220616c726561647920726563656976656420746865207360008201527f6f756c0000000000000000000000000000000000000000000000000000000000602082015250565b7f4e6f7420656e6f75676820746f6b656e7320696e2074686520636f6e7472616360008201527f742062616c616e63650000000000000000000000000000000000000000000000602082015250565b7f54686520766f7465722073686f756c642066697273742072656769737465722060008201527f746f207265636569766520736f756c0000000000000000000000000000000000602082015250565b7f43616e6e6f74206f70656e20616e20656e76656c6f70652c20766f74696e672060008201527f71756f72756d206e6f7420726561636865642079657400000000000000000000602082015250565b7f43616e6e6f7420636865636b207468652077696e6e6572732c2069742077617360008201527f20616c726561647920636865636b656400000000000000000000000000000000602082015250565b7f5468652073656e64657220686173206e6f742063617374656420616e7920766f60008201527f7465730000000000000000000000000000000000000000000000000000000000602082015250565b7f43616e6e6f7420636865636b207468652077696e6e65722c206e65656420746f60008201527f206f70656e20616c6c207468652073656e7420656e76656c6f70657300000000602082015250565b7f5468652073656e6465722068617320616c7265616479206f70656e656420746860008201527f6520656e76656c6f706500000000000000000000000000000000000000000000602082015250565b61247681611fb9565b811461248157600080fd5b50565b61248d81611fdd565b811461249857600080fd5b50565b6124a481611fe9565b81146124af57600080fd5b50565b6124bb81612013565b81146124c657600080fd5b5056fea2646970667358221220e7300f54b19ae31dafc51a95bfd16c479a00708d0d7d25594a5cd47c390ebe8d64736f6c63430008040033",
  "immutableReferences": {},
  "source": "// SPDX-License-Identifier: MIT\n\npragma solidity 0.8.4;\n\nimport \"./SULToken.sol\";\n\nuint constant voterSoul = 100;\n\ncontract Mayor {\n    \n    // STRUCTS, EVENTS and MODIFIERS\n    struct Candidate {\n        uint soul;\n        uint votes;\n    }\n    \n    // Store refund data\n    struct Refund {\n        uint soul;\n        address candidate;\n    }\n    \n    // Data to manage the confirmation\n    struct Conditions {\n        uint32 quorum;\n        uint32 envelopes_casted;\n        uint32 envelopes_opened;\n        bool outcome_announced;\n        address winner;\n    }\n    \n    event NewMayor(address _candidate);\n    event Tie(address _escrow);\n    event EnvelopeCast(address _voter);\n    event EnvelopeOpen(address _voter, uint _soul, address _candidate);\n    event Registered(address _voter);\n\n    // Someone can register to receive the SOUL only one time\n    modifier canRegister() {\n        require(!registered[msg.sender], \"The voter already received the soul\");\n        require(voterSoul < sul.balanceOf(address(this)), \"Not enough tokens in the contract balance\");\n        _;\n    }\n    \n    // Someone can vote as long as the quorum is not reached\n    modifier canVote() {\n        require(voting_condition.envelopes_casted < voting_condition.quorum, \"Cannot vote now, voting quorum has been reached\");\n        require(registered[msg.sender], \"The voter should first register to receive soul\");\n        _;   \n    }\n    \n    // Envelopes can be opened only after receiving the quorum\n    modifier canOpen() {\n        require(voting_condition.envelopes_casted == voting_condition.quorum, \"Cannot open an envelope, voting quorum not reached yet\");\n        _;\n    }\n    \n    // The outcome of the confirmation can be computed only one time as soon as all the casted envelopes have been opened\n    modifier canCheckOutcome() {\n        require(voting_condition.envelopes_opened == voting_condition.quorum, \"Cannot check the winner, need to open all the sent envelopes\");\n        require(voting_condition.outcome_announced == false, \"Cannot check the winners, it was already checked\");\n        _;\n    }\n\n    // STATE ATTRIBUTES\n    \n    // Initialization variables\n    address[] public candidates;\n    address payable public escrow;\n    mapping(address => bool) registered;\n    SULToken private sul;\n    \n    // Voting phase variables\n    mapping(address => bytes32) envelopes;\n    mapping(address => Candidate) public candidates_state;\n    Conditions public voting_condition;\n\n    // Refund phase variables\n    mapping(address => Refund) souls;\n    address[] voters;\n\n    /// @notice The constructor only initializes internal variables\n    /// @param _candidates (array) The addresses of the mayor candidates\n    /// @param _escrow (address) The address of the escrow account\n    /// @param _quorum (address) The number of voters required to finalize the confirmation\n    constructor(address[] memory _candidates, address payable _escrow, uint32 _quorum, address _SULtoken) {\n        require(_candidates.length > 0, \"The candidates must be at least one\");\n\n        // Init ERC20 SUL token\n        sul = SULToken(_SULtoken);\n\n        // Init voting variables\n        for (uint i = 0; i < _candidates.length; i++) {\n            candidates_state[_candidates[i]] = Candidate({soul: 0, votes: 0});\n            candidates.push(_candidates[i]);\n        }\n        escrow = _escrow;\n        voting_condition = Conditions({quorum: _quorum, envelopes_casted: 0, envelopes_opened: 0, outcome_announced: false, winner: address(0)});\n    }\n\n    // @notice Register the voter by sending soul tokens in order to cast the envelope\n    function register() canRegister external {\n        sul.transfer(msg.sender, voterSoul);\n        registered[msg.sender] = true;\n        emit Registered(msg.sender);\n    }\n\n\n    /// @notice Store a received voting envelope\n    /// @param _envelope The envelope represented as the keccak256 hash of (sigil, candidate, soul) \n    function cast_envelope(bytes32 _envelope) canVote external {\n        if (envelopes[msg.sender] == 0x0) // => NEW, update on 17/05/2021\n            voting_condition.envelopes_casted++;\n\n        envelopes[msg.sender] = _envelope;\n        emit EnvelopeCast(msg.sender);\n    }\n    \n    \n    /// @notice Open an envelope and store the vote information\n    /// @param _sigil (uint) The secret sigil of a voter\n    /// @param _candidate (address) The voting preference\n    /// @dev The soul is sent as ERC20 token\n    /// @dev Need to recompute the hash to validate the envelope previously casted\n    function open_envelope(uint _sigil, address _candidate) canOpen external payable {\n        require(envelopes[msg.sender] != 0x0, \"The sender has not casted any votes\");\n        require(souls[msg.sender].soul == 0, \"The sender has already opened the envelope\");\n        \n        bytes32 _casted_envelope = envelopes[msg.sender];\n        bytes32 _sent_envelope = compute_envelope(_sigil, _candidate, msg.value);\n        require(_casted_envelope == _sent_envelope, \"Sent envelope does not correspond to the one casted\");\n\n        // Payment\n        require(sul.allowance(msg.sender, address(this)) == msg.value, \"The value must be the same of the envelope\");\n        require(sul.transferFrom(msg.sender, address(this), msg.value));\n\n        // Refund \n        souls[msg.sender] = Refund(msg.value, _candidate);\n        voters.push(msg.sender);\n\n        // Count souls used for the vote of the Valadilne citizen\n        candidates_state[_candidate].votes += 1;\n        candidates_state[_candidate].soul += msg.value;\n        voting_condition.envelopes_opened++;\n            \n        emit EnvelopeOpen(msg.sender, msg.value, _candidate);\n    }\n    \n    \n    /// @notice Either confirm or kick out the candidate. Refund the electors who voted for the losing outcome\n    function mayor_or_sayonara() canCheckOutcome external {\n        voting_condition.outcome_announced = true;\n\n        // Check winner\n       (address payable probable_winner, uint draw) = find_candidate_with_max_soul();\n\n        if (draw == 0) {\n            // Pay the mayor\n            sul.transfer(probable_winner, candidates_state[probable_winner].soul);\n            voting_condition.winner = probable_winner;\n            emit NewMayor(probable_winner);\n\n            // Refund voters that lost\n            for (uint i = 0; i < voters.length; i++) {\n                address voter = voters[i];\n\n                if (souls[voter].candidate != probable_winner) {\n                    address payable loser = payable(voter);\n                    sul.transfer(loser, souls[voter].soul);\n                }\n            }\n        } else {\n            // Pay the escrow\n            uint total_soul = 0;\n            for (uint i = 0; i < candidates.length; i++) {\n                address addr = candidates[i];\n                total_soul += candidates_state[addr].soul;\n            }\n\n            sul.transfer(escrow, total_soul);            \n            emit Tie(escrow);\n        }\n\n    }\n\n    function find_candidate_with_max_soul() private view returns (address payable, uint) {\n        // Check winner\n        address probable_winner;\n        uint max_soul = 0;\n        uint max_votes = 0;\n        uint draw = 0;\n\n        // Find the candidate with the maximum number of souls\n        for (uint i = 0; i < candidates.length; i++) {\n            address addr = candidates[i];\n\n            if (candidates_state[addr].soul > max_soul) {\n                max_soul = candidates_state[addr].soul;\n                max_votes = candidates_state[addr].votes;\n                probable_winner = addr;\n                draw = 0;\n            } else if (candidates_state[addr].soul == max_soul) {\n                    max_votes = candidates_state[addr].votes;\n                if (candidates_state[addr].votes > max_votes) {\n                    max_soul = candidates_state[addr].soul;\n                    max_votes = candidates_state[addr].votes;\n                    probable_winner = addr;\n                    draw = 0;\n                } else {\n                    draw += 1;\n                }\n            }\n        }\n\n        return (payable(probable_winner), draw);\n    }\n \n\n    /// @notice Compute a voting envelope\n    /// @param _sigil (uint) The secret sigil of a voter\n    /// @param _candidate (address) The voting preference\n    /// @param _soul (uint) The soul associated to the vote\n    function compute_envelope(uint _sigil, address _candidate, uint _soul) public pure returns(bytes32) {\n        return keccak256(abi.encode(_sigil, _candidate, _soul));\n    }\n\n    /// @notice Return the number of candidates\n    function candidates_number() external view returns (uint) {\n        return candidates.length;\n    }\n\n}",
  "sourcePath": "/home/reuseman/alex/inbox/#p2p/@project/backend/contracts/Mayor.sol",
  "compiler": {
    "name": "solc",
    "version": "0.8.4+commit.c7e474f2.Emscripten.clang"
  },
  "schemaVersion": "3.4.1",
  "updatedAt": "2021-07-25T21:48:59.146Z",
  "networkType": "ethereum",
  "devdoc": {
    "kind": "dev",
    "methods": {
      "cast_envelope(bytes32)": {
        "params": {
          "_envelope": "The envelope represented as the keccak256 hash of (sigil, candidate, soul) "
        }
      },
      "compute_envelope(uint256,address,uint256)": {
        "params": {
          "_candidate": "(address) The voting preference",
          "_sigil": "(uint) The secret sigil of a voter",
          "_soul": "(uint) The soul associated to the vote"
        }
      },
      "constructor": {
        "params": {
          "_candidates": "(array) The addresses of the mayor candidates",
          "_escrow": "(address) The address of the escrow account",
          "_quorum": "(address) The number of voters required to finalize the confirmation"
        }
      },
      "open_envelope(uint256,address)": {
        "details": "The soul is sent as ERC20 tokenNeed to recompute the hash to validate the envelope previously casted",
        "params": {
          "_candidate": "(address) The voting preference",
          "_sigil": "(uint) The secret sigil of a voter"
        }
      }
    },
    "version": 1
  },
  "userdoc": {
    "kind": "user",
    "methods": {
      "candidates_number()": {
        "notice": "Return the number of candidates"
      },
      "cast_envelope(bytes32)": {
        "notice": "Store a received voting envelope"
      },
      "compute_envelope(uint256,address,uint256)": {
        "notice": "Compute a voting envelope"
      },
      "constructor": {
        "notice": "The constructor only initializes internal variables"
      },
      "mayor_or_sayonara()": {
        "notice": "Either confirm or kick out the candidate. Refund the electors who voted for the losing outcome"
      },
      "open_envelope(uint256,address)": {
        "notice": "Open an envelope and store the vote information"
      }
    },
    "version": 1
  }
}